{
	"joint_savings.sol": {
		"JointSavings": {
			"abi": [
				{
					"inputs": [],
					"name": "accountOne",
					"outputs": [
						{
							"internalType": "address payable",
							"name": "",
							"type": "address"
						}
					],
					"stateMutability": "view",
					"type": "function"
				},
				{
					"inputs": [],
					"name": "accountTwo",
					"outputs": [
						{
							"internalType": "address payable",
							"name": "",
							"type": "address"
						}
					],
					"stateMutability": "view",
					"type": "function"
				},
				{
					"inputs": [],
					"name": "contractBalance",
					"outputs": [
						{
							"internalType": "uint256",
							"name": "",
							"type": "uint256"
						}
					],
					"stateMutability": "view",
					"type": "function"
				},
				{
					"inputs": [],
					"name": "deposit",
					"outputs": [],
					"stateMutability": "payable",
					"type": "function"
				},
				{
					"inputs": [],
					"name": "lastToWithdraw",
					"outputs": [
						{
							"internalType": "address",
							"name": "",
							"type": "address"
						}
					],
					"stateMutability": "view",
					"type": "function"
				},
				{
					"inputs": [],
					"name": "lastWithdrawAmount",
					"outputs": [
						{
							"internalType": "uint256",
							"name": "",
							"type": "uint256"
						}
					],
					"stateMutability": "view",
					"type": "function"
				},
				{
					"inputs": [
						{
							"internalType": "address payable",
							"name": "account1",
							"type": "address"
						},
						{
							"internalType": "address payable",
							"name": "account2",
							"type": "address"
						}
					],
					"name": "setAccounts",
					"outputs": [],
					"stateMutability": "nonpayable",
					"type": "function"
				},
				{
					"inputs": [
						{
							"internalType": "uint256",
							"name": "amount",
							"type": "uint256"
						},
						{
							"internalType": "address payable",
							"name": "recipient",
							"type": "address"
						}
					],
					"name": "withdraw",
					"outputs": [],
					"stateMutability": "nonpayable",
					"type": "function"
				},
				{
					"stateMutability": "payable",
					"type": "receive"
				}
			],
			"devdoc": {
				"kind": "dev",
				"methods": {},
				"version": 1
			},
			"evm": {
				"assembly": "    /* \"joint_savings.sol\":27:1074  contract JointSavings {... */\n  mstore(0x40, 0x80)\n  callvalue\n  dup1\n  iszero\n  tag_1\n  jumpi\n  0x00\n  dup1\n  revert\ntag_1:\n  pop\n  dataSize(sub_0)\n  dup1\n  dataOffset(sub_0)\n  0x00\n  codecopy\n  0x00\n  return\nstop\n\nsub_0: assembly {\n        /* \"joint_savings.sol\":27:1074  contract JointSavings {... */\n      mstore(0x40, 0x80)\n      jumpi(tag_1, lt(calldatasize, 0x04))\n      shr(0xe0, calldataload(0x00))\n      dup1\n      0xb831461e\n      gt\n      tag_11\n      jumpi\n      dup1\n      0xb831461e\n      eq\n      tag_7\n      jumpi\n      dup1\n      0xcea69559\n      eq\n      tag_8\n      jumpi\n      dup1\n      0xd0e30db0\n      eq\n      tag_9\n      jumpi\n      dup1\n      0xe15e1c95\n      eq\n      tag_10\n      jumpi\n      jump(tag_2)\n    tag_11:\n      dup1\n      0xf714ce\n      eq\n      tag_3\n      jumpi\n      dup1\n      0x43e02605\n      eq\n      tag_4\n      jumpi\n      dup1\n      0x6881c9ea\n      eq\n      tag_5\n      jumpi\n      dup1\n      0x8b7afe2e\n      eq\n      tag_6\n      jumpi\n      jump(tag_2)\n    tag_1:\n      jumpi(tag_2, calldatasize)\n        /* \"joint_savings.sol\":1042:1063  address(this).balance */\n      selfbalance\n        /* \"joint_savings.sol\":1024:1039  contractBalance */\n      0x04\n        /* \"joint_savings.sol\":1024:1063  contractBalance = address(this).balance */\n      dup2\n      swap1\n      sstore\n      stop\n        /* \"joint_savings.sol\":27:1074  contract JointSavings {... */\n    tag_2:\n      0x00\n      dup1\n      revert\n        /* \"joint_savings.sol\":245:718  function withdraw(uint amount, address payable recipient) public {... */\n    tag_3:\n      callvalue\n      dup1\n      iszero\n      tag_14\n      jumpi\n      0x00\n      dup1\n      revert\n    tag_14:\n      pop\n      tag_15\n      0x04\n      dup1\n      calldatasize\n      sub\n      dup2\n      add\n      swap1\n      tag_16\n      swap2\n      swap1\n      tag_17\n      jump\t// in\n    tag_16:\n      tag_18\n      jump\t// in\n    tag_15:\n      stop\n        /* \"joint_savings.sol\":826:978  function setAccounts(address payable account1, address payable account2) public {... */\n    tag_4:\n      callvalue\n      dup1\n      iszero\n      tag_19\n      jumpi\n      0x00\n      dup1\n      revert\n    tag_19:\n      pop\n      tag_20\n      0x04\n      dup1\n      calldatasize\n      sub\n      dup2\n      add\n      swap1\n      tag_21\n      swap2\n      swap1\n      tag_22\n      jump\t// in\n    tag_21:\n      tag_23\n      jump\t// in\n    tag_20:\n      stop\n        /* \"joint_savings.sol\":56:89  address payable public accountOne */\n    tag_5:\n      callvalue\n      dup1\n      iszero\n      tag_24\n      jumpi\n      0x00\n      dup1\n      revert\n    tag_24:\n      pop\n      tag_25\n      tag_26\n      jump\t// in\n    tag_25:\n      mload(0x40)\n      tag_27\n      swap2\n      swap1\n      tag_28\n      jump\t// in\n    tag_27:\n      mload(0x40)\n      dup1\n      swap2\n      sub\n      swap1\n      return\n        /* \"joint_savings.sol\":209:236  uint public contractBalance */\n    tag_6:\n      callvalue\n      dup1\n      iszero\n      tag_29\n      jumpi\n      0x00\n      dup1\n      revert\n    tag_29:\n      pop\n      tag_30\n      tag_31\n      jump\t// in\n    tag_30:\n      mload(0x40)\n      tag_32\n      swap2\n      swap1\n      tag_33\n      jump\t// in\n    tag_32:\n      mload(0x40)\n      dup1\n      swap2\n      sub\n      swap1\n      return\n        /* \"joint_savings.sol\":172:202  uint public lastWithdrawAmount */\n    tag_7:\n      callvalue\n      dup1\n      iszero\n      tag_34\n      jumpi\n      0x00\n      dup1\n      revert\n    tag_34:\n      pop\n      tag_35\n      tag_36\n      jump\t// in\n    tag_35:\n      mload(0x40)\n      tag_37\n      swap2\n      swap1\n      tag_33\n      jump\t// in\n    tag_37:\n      mload(0x40)\n      dup1\n      swap2\n      sub\n      swap1\n      return\n        /* \"joint_savings.sol\":96:129  address payable public accountTwo */\n    tag_8:\n      callvalue\n      dup1\n      iszero\n      tag_38\n      jumpi\n      0x00\n      dup1\n      revert\n    tag_38:\n      pop\n      tag_39\n      tag_40\n      jump\t// in\n    tag_39:\n      mload(0x40)\n      tag_41\n      swap2\n      swap1\n      tag_28\n      jump\t// in\n    tag_41:\n      mload(0x40)\n      dup1\n      swap2\n      sub\n      swap1\n      return\n        /* \"joint_savings.sol\":726:818  function deposit() public payable {... */\n    tag_9:\n      tag_42\n      tag_43\n      jump\t// in\n    tag_42:\n      stop\n        /* \"joint_savings.sol\":136:165  address public lastToWithdraw */\n    tag_10:\n      callvalue\n      dup1\n      iszero\n      tag_44\n      jumpi\n      0x00\n      dup1\n      revert\n    tag_44:\n      pop\n      tag_45\n      tag_46\n      jump\t// in\n    tag_45:\n      mload(0x40)\n      tag_47\n      swap2\n      swap1\n      tag_48\n      jump\t// in\n    tag_47:\n      mload(0x40)\n      dup1\n      swap2\n      sub\n      swap1\n      return\n        /* \"joint_savings.sol\":245:718  function withdraw(uint amount, address payable recipient) public {... */\n    tag_18:\n        /* \"joint_savings.sol\":342:352  accountOne */\n      0x00\n      dup1\n      sload\n      swap1\n      0x0100\n      exp\n      swap1\n      div\n      0xffffffffffffffffffffffffffffffffffffffff\n      and\n        /* \"joint_savings.sol\":329:352  recipient == accountOne */\n      0xffffffffffffffffffffffffffffffffffffffff\n      and\n        /* \"joint_savings.sol\":329:338  recipient */\n      dup2\n        /* \"joint_savings.sol\":329:352  recipient == accountOne */\n      0xffffffffffffffffffffffffffffffffffffffff\n      and\n      eq\n        /* \"joint_savings.sol\":329:379  recipient == accountOne || recipient == accountTwo */\n      dup1\n      tag_50\n      jumpi\n      pop\n        /* \"joint_savings.sol\":369:379  accountTwo */\n      0x01\n      0x00\n      swap1\n      sload\n      swap1\n      0x0100\n      exp\n      swap1\n      div\n      0xffffffffffffffffffffffffffffffffffffffff\n      and\n        /* \"joint_savings.sol\":356:379  recipient == accountTwo */\n      0xffffffffffffffffffffffffffffffffffffffff\n      and\n        /* \"joint_savings.sol\":356:365  recipient */\n      dup2\n        /* \"joint_savings.sol\":356:379  recipient == accountTwo */\n      0xffffffffffffffffffffffffffffffffffffffff\n      and\n      eq\n        /* \"joint_savings.sol\":329:379  recipient == accountOne || recipient == accountTwo */\n    tag_50:\n        /* \"joint_savings.sol\":321:411  require(recipient == accountOne || recipient == accountTwo, \"You don't own this account!\") */\n      tag_51\n      jumpi\n      mload(0x40)\n      0x08c379a000000000000000000000000000000000000000000000000000000000\n      dup2\n      mstore\n      0x04\n      add\n      tag_52\n      swap1\n      tag_53\n      jump\t// in\n    tag_52:\n      mload(0x40)\n      dup1\n      swap2\n      sub\n      swap1\n      revert\n    tag_51:\n        /* \"joint_savings.sol\":455:461  amount */\n      dup2\n        /* \"joint_savings.sol\":430:451  address(this).balance */\n      selfbalance\n        /* \"joint_savings.sol\":430:461  address(this).balance >= amount */\n      lt\n      iszero\n        /* \"joint_savings.sol\":422:485  require(address(this).balance >= amount, \"Insufficient funds!\") */\n      tag_54\n      jumpi\n      mload(0x40)\n      0x08c379a000000000000000000000000000000000000000000000000000000000\n      dup2\n      mstore\n      0x04\n      add\n      tag_55\n      swap1\n      tag_56\n      jump\t// in\n    tag_55:\n      mload(0x40)\n      dup1\n      swap2\n      sub\n      swap1\n      revert\n    tag_54:\n        /* \"joint_savings.sol\":520:529  recipient */\n      dup1\n        /* \"joint_savings.sol\":502:529  lastToWithdraw != recipient */\n      0xffffffffffffffffffffffffffffffffffffffff\n      and\n        /* \"joint_savings.sol\":502:516  lastToWithdraw */\n      0x02\n      0x00\n      swap1\n      sload\n      swap1\n      0x0100\n      exp\n      swap1\n      div\n      0xffffffffffffffffffffffffffffffffffffffff\n      and\n        /* \"joint_savings.sol\":502:529  lastToWithdraw != recipient */\n      0xffffffffffffffffffffffffffffffffffffffff\n      and\n      eq\n        /* \"joint_savings.sol\":498:584  if (lastToWithdraw != recipient) {... */\n      tag_57\n      jumpi\n        /* \"joint_savings.sol\":563:572  recipient */\n      dup1\n        /* \"joint_savings.sol\":546:560  lastToWithdraw */\n      0x02\n      0x00\n        /* \"joint_savings.sol\":546:572  lastToWithdraw = recipient */\n      0x0100\n      exp\n      dup2\n      sload\n      dup2\n      0xffffffffffffffffffffffffffffffffffffffff\n      mul\n      not\n      and\n      swap1\n      dup4\n      0xffffffffffffffffffffffffffffffffffffffff\n      and\n      mul\n      or\n      swap1\n      sstore\n      pop\n        /* \"joint_savings.sol\":498:584  if (lastToWithdraw != recipient) {... */\n    tag_57:\n        /* \"joint_savings.sol\":596:605  recipient */\n      dup1\n        /* \"joint_savings.sol\":596:614  recipient.transfer */\n      0xffffffffffffffffffffffffffffffffffffffff\n      and\n        /* \"joint_savings.sol\":596:622  recipient.transfer(amount) */\n      0x08fc\n        /* \"joint_savings.sol\":615:621  amount */\n      dup4\n        /* \"joint_savings.sol\":596:622  recipient.transfer(amount) */\n      swap1\n      dup2\n      iszero\n      mul\n      swap1\n      mload(0x40)\n      0x00\n      mload(0x40)\n      dup1\n      dup4\n      sub\n      dup2\n      dup6\n      dup9\n      dup9\n      call\n      swap4\n      pop\n      pop\n      pop\n      pop\n      iszero\n      dup1\n      iszero\n      tag_59\n      jumpi\n      returndatasize\n      0x00\n      dup1\n      returndatacopy\n      revert(0x00, returndatasize)\n    tag_59:\n      pop\n        /* \"joint_savings.sol\":654:660  amount */\n      dup2\n        /* \"joint_savings.sol\":633:651  lastWithdrawAmount */\n      0x03\n        /* \"joint_savings.sol\":633:660  lastWithdrawAmount = amount */\n      dup2\n      swap1\n      sstore\n      pop\n        /* \"joint_savings.sol\":689:710  address(this).balance */\n      selfbalance\n        /* \"joint_savings.sol\":671:686  contractBalance */\n      0x04\n        /* \"joint_savings.sol\":671:710  contractBalance = address(this).balance */\n      dup2\n      swap1\n      sstore\n      pop\n        /* \"joint_savings.sol\":245:718  function withdraw(uint amount, address payable recipient) public {... */\n      pop\n      pop\n      jump\t// out\n        /* \"joint_savings.sol\":826:978  function setAccounts(address payable account1, address payable account2) public {... */\n    tag_23:\n        /* \"joint_savings.sol\":930:938  account1 */\n      dup2\n        /* \"joint_savings.sol\":917:927  accountOne */\n      0x00\n      dup1\n        /* \"joint_savings.sol\":917:938  accountOne = account1 */\n      0x0100\n      exp\n      dup2\n      sload\n      dup2\n      0xffffffffffffffffffffffffffffffffffffffff\n      mul\n      not\n      and\n      swap1\n      dup4\n      0xffffffffffffffffffffffffffffffffffffffff\n      and\n      mul\n      or\n      swap1\n      sstore\n      pop\n        /* \"joint_savings.sol\":962:970  account2 */\n      dup1\n        /* \"joint_savings.sol\":949:959  accountTwo */\n      0x01\n      0x00\n        /* \"joint_savings.sol\":949:970  accountTwo = account2 */\n      0x0100\n      exp\n      dup2\n      sload\n      dup2\n      0xffffffffffffffffffffffffffffffffffffffff\n      mul\n      not\n      and\n      swap1\n      dup4\n      0xffffffffffffffffffffffffffffffffffffffff\n      and\n      mul\n      or\n      swap1\n      sstore\n      pop\n        /* \"joint_savings.sol\":826:978  function setAccounts(address payable account1, address payable account2) public {... */\n      pop\n      pop\n      jump\t// out\n        /* \"joint_savings.sol\":56:89  address payable public accountOne */\n    tag_26:\n      0x00\n      dup1\n      sload\n      swap1\n      0x0100\n      exp\n      swap1\n      div\n      0xffffffffffffffffffffffffffffffffffffffff\n      and\n      dup2\n      jump\t// out\n        /* \"joint_savings.sol\":209:236  uint public contractBalance */\n    tag_31:\n      sload(0x04)\n      dup2\n      jump\t// out\n        /* \"joint_savings.sol\":172:202  uint public lastWithdrawAmount */\n    tag_36:\n      sload(0x03)\n      dup2\n      jump\t// out\n        /* \"joint_savings.sol\":96:129  address payable public accountTwo */\n    tag_40:\n      0x01\n      0x00\n      swap1\n      sload\n      swap1\n      0x0100\n      exp\n      swap1\n      div\n      0xffffffffffffffffffffffffffffffffffffffff\n      and\n      dup2\n      jump\t// out\n        /* \"joint_savings.sol\":726:818  function deposit() public payable {... */\n    tag_43:\n        /* \"joint_savings.sol\":789:810  address(this).balance */\n      selfbalance\n        /* \"joint_savings.sol\":771:786  contractBalance */\n      0x04\n        /* \"joint_savings.sol\":771:810  contractBalance = address(this).balance */\n      dup2\n      swap1\n      sstore\n      pop\n        /* \"joint_savings.sol\":726:818  function deposit() public payable {... */\n      jump\t// out\n        /* \"joint_savings.sol\":136:165  address public lastToWithdraw */\n    tag_46:\n      0x02\n      0x00\n      swap1\n      sload\n      swap1\n      0x0100\n      exp\n      swap1\n      div\n      0xffffffffffffffffffffffffffffffffffffffff\n      and\n      dup2\n      jump\t// out\n        /* \"#utility.yul\":88:205   */\n    tag_63:\n        /* \"#utility.yul\":197:198   */\n      0x00\n        /* \"#utility.yul\":194:195   */\n      dup1\n        /* \"#utility.yul\":187:199   */\n      revert\n        /* \"#utility.yul\":334:411   */\n    tag_65:\n        /* \"#utility.yul\":371:378   */\n      0x00\n        /* \"#utility.yul\":400:405   */\n      dup2\n        /* \"#utility.yul\":389:405   */\n      swap1\n      pop\n        /* \"#utility.yul\":334:411   */\n      swap2\n      swap1\n      pop\n      jump\t// out\n        /* \"#utility.yul\":417:539   */\n    tag_66:\n        /* \"#utility.yul\":490:514   */\n      tag_87\n        /* \"#utility.yul\":508:513   */\n      dup2\n        /* \"#utility.yul\":490:514   */\n      tag_65\n      jump\t// in\n    tag_87:\n        /* \"#utility.yul\":483:488   */\n      dup2\n        /* \"#utility.yul\":480:515   */\n      eq\n        /* \"#utility.yul\":470:533   */\n      tag_88\n      jumpi\n        /* \"#utility.yul\":529:530   */\n      0x00\n        /* \"#utility.yul\":526:527   */\n      dup1\n        /* \"#utility.yul\":519:531   */\n      revert\n        /* \"#utility.yul\":470:533   */\n    tag_88:\n        /* \"#utility.yul\":417:539   */\n      pop\n      jump\t// out\n        /* \"#utility.yul\":545:684   */\n    tag_67:\n        /* \"#utility.yul\":591:596   */\n      0x00\n        /* \"#utility.yul\":629:635   */\n      dup2\n        /* \"#utility.yul\":616:636   */\n      calldataload\n        /* \"#utility.yul\":607:636   */\n      swap1\n      pop\n        /* \"#utility.yul\":645:678   */\n      tag_90\n        /* \"#utility.yul\":672:677   */\n      dup2\n        /* \"#utility.yul\":645:678   */\n      tag_66\n      jump\t// in\n    tag_90:\n        /* \"#utility.yul\":545:684   */\n      swap3\n      swap2\n      pop\n      pop\n      jump\t// out\n        /* \"#utility.yul\":690:816   */\n    tag_68:\n        /* \"#utility.yul\":727:734   */\n      0x00\n        /* \"#utility.yul\":767:809   */\n      0xffffffffffffffffffffffffffffffffffffffff\n        /* \"#utility.yul\":760:765   */\n      dup3\n        /* \"#utility.yul\":756:810   */\n      and\n        /* \"#utility.yul\":745:810   */\n      swap1\n      pop\n        /* \"#utility.yul\":690:816   */\n      swap2\n      swap1\n      pop\n      jump\t// out\n        /* \"#utility.yul\":822:926   */\n    tag_69:\n        /* \"#utility.yul\":867:874   */\n      0x00\n        /* \"#utility.yul\":896:920   */\n      tag_93\n        /* \"#utility.yul\":914:919   */\n      dup3\n        /* \"#utility.yul\":896:920   */\n      tag_68\n      jump\t// in\n    tag_93:\n        /* \"#utility.yul\":885:920   */\n      swap1\n      pop\n        /* \"#utility.yul\":822:926   */\n      swap2\n      swap1\n      pop\n      jump\t// out\n        /* \"#utility.yul\":932:1070   */\n    tag_70:\n        /* \"#utility.yul\":1013:1045   */\n      tag_95\n        /* \"#utility.yul\":1039:1044   */\n      dup2\n        /* \"#utility.yul\":1013:1045   */\n      tag_69\n      jump\t// in\n    tag_95:\n        /* \"#utility.yul\":1006:1011   */\n      dup2\n        /* \"#utility.yul\":1003:1046   */\n      eq\n        /* \"#utility.yul\":993:1064   */\n      tag_96\n      jumpi\n        /* \"#utility.yul\":1060:1061   */\n      0x00\n        /* \"#utility.yul\":1057:1058   */\n      dup1\n        /* \"#utility.yul\":1050:1062   */\n      revert\n        /* \"#utility.yul\":993:1064   */\n    tag_96:\n        /* \"#utility.yul\":932:1070   */\n      pop\n      jump\t// out\n        /* \"#utility.yul\":1076:1231   */\n    tag_71:\n        /* \"#utility.yul\":1130:1135   */\n      0x00\n        /* \"#utility.yul\":1168:1174   */\n      dup2\n        /* \"#utility.yul\":1155:1175   */\n      calldataload\n        /* \"#utility.yul\":1146:1175   */\n      swap1\n      pop\n        /* \"#utility.yul\":1184:1225   */\n      tag_98\n        /* \"#utility.yul\":1219:1224   */\n      dup2\n        /* \"#utility.yul\":1184:1225   */\n      tag_70\n      jump\t// in\n    tag_98:\n        /* \"#utility.yul\":1076:1231   */\n      swap3\n      swap2\n      pop\n      pop\n      jump\t// out\n        /* \"#utility.yul\":1237:1727   */\n    tag_17:\n        /* \"#utility.yul\":1313:1319   */\n      0x00\n        /* \"#utility.yul\":1321:1327   */\n      dup1\n        /* \"#utility.yul\":1370:1372   */\n      0x40\n        /* \"#utility.yul\":1358:1367   */\n      dup4\n        /* \"#utility.yul\":1349:1356   */\n      dup6\n        /* \"#utility.yul\":1345:1368   */\n      sub\n        /* \"#utility.yul\":1341:1373   */\n      slt\n        /* \"#utility.yul\":1338:1457   */\n      iszero\n      tag_100\n      jumpi\n        /* \"#utility.yul\":1376:1455   */\n      tag_101\n      tag_63\n      jump\t// in\n    tag_101:\n        /* \"#utility.yul\":1338:1457   */\n    tag_100:\n        /* \"#utility.yul\":1496:1497   */\n      0x00\n        /* \"#utility.yul\":1521:1574   */\n      tag_102\n        /* \"#utility.yul\":1566:1573   */\n      dup6\n        /* \"#utility.yul\":1557:1563   */\n      dup3\n        /* \"#utility.yul\":1546:1555   */\n      dup7\n        /* \"#utility.yul\":1542:1564   */\n      add\n        /* \"#utility.yul\":1521:1574   */\n      tag_67\n      jump\t// in\n    tag_102:\n        /* \"#utility.yul\":1511:1574   */\n      swap3\n      pop\n        /* \"#utility.yul\":1467:1584   */\n      pop\n        /* \"#utility.yul\":1623:1625   */\n      0x20\n        /* \"#utility.yul\":1649:1710   */\n      tag_103\n        /* \"#utility.yul\":1702:1709   */\n      dup6\n        /* \"#utility.yul\":1693:1699   */\n      dup3\n        /* \"#utility.yul\":1682:1691   */\n      dup7\n        /* \"#utility.yul\":1678:1700   */\n      add\n        /* \"#utility.yul\":1649:1710   */\n      tag_71\n      jump\t// in\n    tag_103:\n        /* \"#utility.yul\":1639:1710   */\n      swap2\n      pop\n        /* \"#utility.yul\":1594:1720   */\n      pop\n        /* \"#utility.yul\":1237:1727   */\n      swap3\n      pop\n      swap3\n      swap1\n      pop\n      jump\t// out\n        /* \"#utility.yul\":1733:2239   */\n    tag_22:\n        /* \"#utility.yul\":1817:1823   */\n      0x00\n        /* \"#utility.yul\":1825:1831   */\n      dup1\n        /* \"#utility.yul\":1874:1876   */\n      0x40\n        /* \"#utility.yul\":1862:1871   */\n      dup4\n        /* \"#utility.yul\":1853:1860   */\n      dup6\n        /* \"#utility.yul\":1849:1872   */\n      sub\n        /* \"#utility.yul\":1845:1877   */\n      slt\n        /* \"#utility.yul\":1842:1961   */\n      iszero\n      tag_105\n      jumpi\n        /* \"#utility.yul\":1880:1959   */\n      tag_106\n      tag_63\n      jump\t// in\n    tag_106:\n        /* \"#utility.yul\":1842:1961   */\n    tag_105:\n        /* \"#utility.yul\":2000:2001   */\n      0x00\n        /* \"#utility.yul\":2025:2086   */\n      tag_107\n        /* \"#utility.yul\":2078:2085   */\n      dup6\n        /* \"#utility.yul\":2069:2075   */\n      dup3\n        /* \"#utility.yul\":2058:2067   */\n      dup7\n        /* \"#utility.yul\":2054:2076   */\n      add\n        /* \"#utility.yul\":2025:2086   */\n      tag_71\n      jump\t// in\n    tag_107:\n        /* \"#utility.yul\":2015:2086   */\n      swap3\n      pop\n        /* \"#utility.yul\":1971:2096   */\n      pop\n        /* \"#utility.yul\":2135:2137   */\n      0x20\n        /* \"#utility.yul\":2161:2222   */\n      tag_108\n        /* \"#utility.yul\":2214:2221   */\n      dup6\n        /* \"#utility.yul\":2205:2211   */\n      dup3\n        /* \"#utility.yul\":2194:2203   */\n      dup7\n        /* \"#utility.yul\":2190:2212   */\n      add\n        /* \"#utility.yul\":2161:2222   */\n      tag_71\n      jump\t// in\n    tag_108:\n        /* \"#utility.yul\":2151:2222   */\n      swap2\n      pop\n        /* \"#utility.yul\":2106:2232   */\n      pop\n        /* \"#utility.yul\":1733:2239   */\n      swap3\n      pop\n      swap3\n      swap1\n      pop\n      jump\t// out\n        /* \"#utility.yul\":2245:2387   */\n    tag_72:\n        /* \"#utility.yul\":2348:2380   */\n      tag_110\n        /* \"#utility.yul\":2374:2379   */\n      dup2\n        /* \"#utility.yul\":2348:2380   */\n      tag_69\n      jump\t// in\n    tag_110:\n        /* \"#utility.yul\":2343:2346   */\n      dup3\n        /* \"#utility.yul\":2336:2381   */\n      mstore\n        /* \"#utility.yul\":2245:2387   */\n      pop\n      pop\n      jump\t// out\n        /* \"#utility.yul\":2393:2647   */\n    tag_28:\n        /* \"#utility.yul\":2502:2506   */\n      0x00\n        /* \"#utility.yul\":2540:2542   */\n      0x20\n        /* \"#utility.yul\":2529:2538   */\n      dup3\n        /* \"#utility.yul\":2525:2543   */\n      add\n        /* \"#utility.yul\":2517:2543   */\n      swap1\n      pop\n        /* \"#utility.yul\":2553:2640   */\n      tag_112\n        /* \"#utility.yul\":2637:2638   */\n      0x00\n        /* \"#utility.yul\":2626:2635   */\n      dup4\n        /* \"#utility.yul\":2622:2639   */\n      add\n        /* \"#utility.yul\":2613:2619   */\n      dup5\n        /* \"#utility.yul\":2553:2640   */\n      tag_72\n      jump\t// in\n    tag_112:\n        /* \"#utility.yul\":2393:2647   */\n      swap3\n      swap2\n      pop\n      pop\n      jump\t// out\n        /* \"#utility.yul\":2653:2771   */\n    tag_73:\n        /* \"#utility.yul\":2740:2764   */\n      tag_114\n        /* \"#utility.yul\":2758:2763   */\n      dup2\n        /* \"#utility.yul\":2740:2764   */\n      tag_65\n      jump\t// in\n    tag_114:\n        /* \"#utility.yul\":2735:2738   */\n      dup3\n        /* \"#utility.yul\":2728:2765   */\n      mstore\n        /* \"#utility.yul\":2653:2771   */\n      pop\n      pop\n      jump\t// out\n        /* \"#utility.yul\":2777:2999   */\n    tag_33:\n        /* \"#utility.yul\":2870:2874   */\n      0x00\n        /* \"#utility.yul\":2908:2910   */\n      0x20\n        /* \"#utility.yul\":2897:2906   */\n      dup3\n        /* \"#utility.yul\":2893:2911   */\n      add\n        /* \"#utility.yul\":2885:2911   */\n      swap1\n      pop\n        /* \"#utility.yul\":2921:2992   */\n      tag_116\n        /* \"#utility.yul\":2989:2990   */\n      0x00\n        /* \"#utility.yul\":2978:2987   */\n      dup4\n        /* \"#utility.yul\":2974:2991   */\n      add\n        /* \"#utility.yul\":2965:2971   */\n      dup5\n        /* \"#utility.yul\":2921:2992   */\n      tag_73\n      jump\t// in\n    tag_116:\n        /* \"#utility.yul\":2777:2999   */\n      swap3\n      swap2\n      pop\n      pop\n      jump\t// out\n        /* \"#utility.yul\":3005:3101   */\n    tag_74:\n        /* \"#utility.yul\":3042:3049   */\n      0x00\n        /* \"#utility.yul\":3071:3095   */\n      tag_118\n        /* \"#utility.yul\":3089:3094   */\n      dup3\n        /* \"#utility.yul\":3071:3095   */\n      tag_68\n      jump\t// in\n    tag_118:\n        /* \"#utility.yul\":3060:3095   */\n      swap1\n      pop\n        /* \"#utility.yul\":3005:3101   */\n      swap2\n      swap1\n      pop\n      jump\t// out\n        /* \"#utility.yul\":3107:3225   */\n    tag_75:\n        /* \"#utility.yul\":3194:3218   */\n      tag_120\n        /* \"#utility.yul\":3212:3217   */\n      dup2\n        /* \"#utility.yul\":3194:3218   */\n      tag_74\n      jump\t// in\n    tag_120:\n        /* \"#utility.yul\":3189:3192   */\n      dup3\n        /* \"#utility.yul\":3182:3219   */\n      mstore\n        /* \"#utility.yul\":3107:3225   */\n      pop\n      pop\n      jump\t// out\n        /* \"#utility.yul\":3231:3453   */\n    tag_48:\n        /* \"#utility.yul\":3324:3328   */\n      0x00\n        /* \"#utility.yul\":3362:3364   */\n      0x20\n        /* \"#utility.yul\":3351:3360   */\n      dup3\n        /* \"#utility.yul\":3347:3365   */\n      add\n        /* \"#utility.yul\":3339:3365   */\n      swap1\n      pop\n        /* \"#utility.yul\":3375:3446   */\n      tag_122\n        /* \"#utility.yul\":3443:3444   */\n      0x00\n        /* \"#utility.yul\":3432:3441   */\n      dup4\n        /* \"#utility.yul\":3428:3445   */\n      add\n        /* \"#utility.yul\":3419:3425   */\n      dup5\n        /* \"#utility.yul\":3375:3446   */\n      tag_75\n      jump\t// in\n    tag_122:\n        /* \"#utility.yul\":3231:3453   */\n      swap3\n      swap2\n      pop\n      pop\n      jump\t// out\n        /* \"#utility.yul\":3459:3628   */\n    tag_76:\n        /* \"#utility.yul\":3543:3554   */\n      0x00\n        /* \"#utility.yul\":3577:3583   */\n      dup3\n        /* \"#utility.yul\":3572:3575   */\n      dup3\n        /* \"#utility.yul\":3565:3584   */\n      mstore\n        /* \"#utility.yul\":3617:3621   */\n      0x20\n        /* \"#utility.yul\":3612:3615   */\n      dup3\n        /* \"#utility.yul\":3608:3622   */\n      add\n        /* \"#utility.yul\":3593:3622   */\n      swap1\n      pop\n        /* \"#utility.yul\":3459:3628   */\n      swap3\n      swap2\n      pop\n      pop\n      jump\t// out\n        /* \"#utility.yul\":3634:3811   */\n    tag_77:\n        /* \"#utility.yul\":3774:3803   */\n      0x596f7520646f6e2774206f776e2074686973206163636f756e74210000000000\n        /* \"#utility.yul\":3770:3771   */\n      0x00\n        /* \"#utility.yul\":3762:3768   */\n      dup3\n        /* \"#utility.yul\":3758:3772   */\n      add\n        /* \"#utility.yul\":3751:3804   */\n      mstore\n        /* \"#utility.yul\":3634:3811   */\n      pop\n      jump\t// out\n        /* \"#utility.yul\":3817:4183   */\n    tag_78:\n        /* \"#utility.yul\":3959:3962   */\n      0x00\n        /* \"#utility.yul\":3980:4047   */\n      tag_126\n        /* \"#utility.yul\":4044:4046   */\n      0x1b\n        /* \"#utility.yul\":4039:4042   */\n      dup4\n        /* \"#utility.yul\":3980:4047   */\n      tag_76\n      jump\t// in\n    tag_126:\n        /* \"#utility.yul\":3973:4047   */\n      swap2\n      pop\n        /* \"#utility.yul\":4056:4149   */\n      tag_127\n        /* \"#utility.yul\":4145:4148   */\n      dup3\n        /* \"#utility.yul\":4056:4149   */\n      tag_77\n      jump\t// in\n    tag_127:\n        /* \"#utility.yul\":4174:4176   */\n      0x20\n        /* \"#utility.yul\":4169:4172   */\n      dup3\n        /* \"#utility.yul\":4165:4177   */\n      add\n        /* \"#utility.yul\":4158:4177   */\n      swap1\n      pop\n        /* \"#utility.yul\":3817:4183   */\n      swap2\n      swap1\n      pop\n      jump\t// out\n        /* \"#utility.yul\":4189:4608   */\n    tag_53:\n        /* \"#utility.yul\":4355:4359   */\n      0x00\n        /* \"#utility.yul\":4393:4395   */\n      0x20\n        /* \"#utility.yul\":4382:4391   */\n      dup3\n        /* \"#utility.yul\":4378:4396   */\n      add\n        /* \"#utility.yul\":4370:4396   */\n      swap1\n      pop\n        /* \"#utility.yul\":4442:4451   */\n      dup2\n        /* \"#utility.yul\":4436:4440   */\n      dup2\n        /* \"#utility.yul\":4432:4452   */\n      sub\n        /* \"#utility.yul\":4428:4429   */\n      0x00\n        /* \"#utility.yul\":4417:4426   */\n      dup4\n        /* \"#utility.yul\":4413:4430   */\n      add\n        /* \"#utility.yul\":4406:4453   */\n      mstore\n        /* \"#utility.yul\":4470:4601   */\n      tag_129\n        /* \"#utility.yul\":4596:4600   */\n      dup2\n        /* \"#utility.yul\":4470:4601   */\n      tag_78\n      jump\t// in\n    tag_129:\n        /* \"#utility.yul\":4462:4601   */\n      swap1\n      pop\n        /* \"#utility.yul\":4189:4608   */\n      swap2\n      swap1\n      pop\n      jump\t// out\n        /* \"#utility.yul\":4614:4783   */\n    tag_79:\n        /* \"#utility.yul\":4754:4775   */\n      0x496e73756666696369656e742066756e64732100000000000000000000000000\n        /* \"#utility.yul\":4750:4751   */\n      0x00\n        /* \"#utility.yul\":4742:4748   */\n      dup3\n        /* \"#utility.yul\":4738:4752   */\n      add\n        /* \"#utility.yul\":4731:4776   */\n      mstore\n        /* \"#utility.yul\":4614:4783   */\n      pop\n      jump\t// out\n        /* \"#utility.yul\":4789:5155   */\n    tag_80:\n        /* \"#utility.yul\":4931:4934   */\n      0x00\n        /* \"#utility.yul\":4952:5019   */\n      tag_132\n        /* \"#utility.yul\":5016:5018   */\n      0x13\n        /* \"#utility.yul\":5011:5014   */\n      dup4\n        /* \"#utility.yul\":4952:5019   */\n      tag_76\n      jump\t// in\n    tag_132:\n        /* \"#utility.yul\":4945:5019   */\n      swap2\n      pop\n        /* \"#utility.yul\":5028:5121   */\n      tag_133\n        /* \"#utility.yul\":5117:5120   */\n      dup3\n        /* \"#utility.yul\":5028:5121   */\n      tag_79\n      jump\t// in\n    tag_133:\n        /* \"#utility.yul\":5146:5148   */\n      0x20\n        /* \"#utility.yul\":5141:5144   */\n      dup3\n        /* \"#utility.yul\":5137:5149   */\n      add\n        /* \"#utility.yul\":5130:5149   */\n      swap1\n      pop\n        /* \"#utility.yul\":4789:5155   */\n      swap2\n      swap1\n      pop\n      jump\t// out\n        /* \"#utility.yul\":5161:5580   */\n    tag_56:\n        /* \"#utility.yul\":5327:5331   */\n      0x00\n        /* \"#utility.yul\":5365:5367   */\n      0x20\n        /* \"#utility.yul\":5354:5363   */\n      dup3\n        /* \"#utility.yul\":5350:5368   */\n      add\n        /* \"#utility.yul\":5342:5368   */\n      swap1\n      pop\n        /* \"#utility.yul\":5414:5423   */\n      dup2\n        /* \"#utility.yul\":5408:5412   */\n      dup2\n        /* \"#utility.yul\":5404:5424   */\n      sub\n        /* \"#utility.yul\":5400:5401   */\n      0x00\n        /* \"#utility.yul\":5389:5398   */\n      dup4\n        /* \"#utility.yul\":5385:5402   */\n      add\n        /* \"#utility.yul\":5378:5425   */\n      mstore\n        /* \"#utility.yul\":5442:5573   */\n      tag_135\n        /* \"#utility.yul\":5568:5572   */\n      dup2\n        /* \"#utility.yul\":5442:5573   */\n      tag_80\n      jump\t// in\n    tag_135:\n        /* \"#utility.yul\":5434:5573   */\n      swap1\n      pop\n        /* \"#utility.yul\":5161:5580   */\n      swap2\n      swap1\n      pop\n      jump\t// out\n\n    auxdata: 0xa2646970667358221220942c350d5a7279492d2b3060b6c4aaad1e77f92cd8980f5630d44efcbd58778c64736f6c63430008120033\n}\n",
				"bytecode": {
					"linkReferences": {},
					"object": "608060405234801561001057600080fd5b506107ae806100206000396000f3fe60806040526004361061007e5760003560e01c8063b831461e1161004e578063b831461e14610138578063cea6955914610163578063d0e30db01461018e578063e15e1c95146101985761008b565b8062f714ce1461009057806343e02605146100b95780636881c9ea146100e25780638b7afe2e1461010d5761008b565b3661008b57476004819055005b600080fd5b34801561009c57600080fd5b506100b760048036038101906100b2919061057f565b6101c3565b005b3480156100c557600080fd5b506100e060048036038101906100db91906105bf565b6103dc565b005b3480156100ee57600080fd5b506100f7610461565b604051610104919061060e565b60405180910390f35b34801561011957600080fd5b50610122610485565b60405161012f9190610638565b60405180910390f35b34801561014457600080fd5b5061014d61048b565b60405161015a9190610638565b60405180910390f35b34801561016f57600080fd5b50610178610491565b604051610185919061060e565b60405180910390f35b6101966104b7565b005b3480156101a457600080fd5b506101ad6104c0565b6040516101ba9190610674565b60405180910390f35b60008054906101000a900473ffffffffffffffffffffffffffffffffffffffff1673ffffffffffffffffffffffffffffffffffffffff168173ffffffffffffffffffffffffffffffffffffffff16148061026a5750600160009054906101000a900473ffffffffffffffffffffffffffffffffffffffff1673ffffffffffffffffffffffffffffffffffffffff168173ffffffffffffffffffffffffffffffffffffffff16145b6102a9576040517f08c379a00000000000000000000000000000000000000000000000000000000081526004016102a0906106ec565b60405180910390fd5b814710156102ec576040517f08c379a00000000000000000000000000000000000000000000000000000000081526004016102e390610758565b60405180910390fd5b8073ffffffffffffffffffffffffffffffffffffffff16600260009054906101000a900473ffffffffffffffffffffffffffffffffffffffff1673ffffffffffffffffffffffffffffffffffffffff16146103835780600260006101000a81548173ffffffffffffffffffffffffffffffffffffffff021916908373ffffffffffffffffffffffffffffffffffffffff1602179055505b8073ffffffffffffffffffffffffffffffffffffffff166108fc839081150290604051600060405180830381858888f193505050501580156103c9573d6000803e3d6000fd5b5081600381905550476004819055505050565b816000806101000a81548173ffffffffffffffffffffffffffffffffffffffff021916908373ffffffffffffffffffffffffffffffffffffffff16021790555080600160006101000a81548173ffffffffffffffffffffffffffffffffffffffff021916908373ffffffffffffffffffffffffffffffffffffffff1602179055505050565b60008054906101000a900473ffffffffffffffffffffffffffffffffffffffff1681565b60045481565b60035481565b600160009054906101000a900473ffffffffffffffffffffffffffffffffffffffff1681565b47600481905550565b600260009054906101000a900473ffffffffffffffffffffffffffffffffffffffff1681565b600080fd5b6000819050919050565b6104fe816104eb565b811461050957600080fd5b50565b60008135905061051b816104f5565b92915050565b600073ffffffffffffffffffffffffffffffffffffffff82169050919050565b600061054c82610521565b9050919050565b61055c81610541565b811461056757600080fd5b50565b60008135905061057981610553565b92915050565b60008060408385031215610596576105956104e6565b5b60006105a48582860161050c565b92505060206105b58582860161056a565b9150509250929050565b600080604083850312156105d6576105d56104e6565b5b60006105e48582860161056a565b92505060206105f58582860161056a565b9150509250929050565b61060881610541565b82525050565b600060208201905061062360008301846105ff565b92915050565b610632816104eb565b82525050565b600060208201905061064d6000830184610629565b92915050565b600061065e82610521565b9050919050565b61066e81610653565b82525050565b60006020820190506106896000830184610665565b92915050565b600082825260208201905092915050565b7f596f7520646f6e2774206f776e2074686973206163636f756e74210000000000600082015250565b60006106d6601b8361068f565b91506106e1826106a0565b602082019050919050565b60006020820190508181036000830152610705816106c9565b9050919050565b7f496e73756666696369656e742066756e64732100000000000000000000000000600082015250565b600061074260138361068f565b915061074d8261070c565b602082019050919050565b6000602082019050818103600083015261077181610735565b905091905056fea2646970667358221220942c350d5a7279492d2b3060b6c4aaad1e77f92cd8980f5630d44efcbd58778c64736f6c63430008120033",
					"opcodes": "PUSH1 0x80 PUSH1 0x40 MSTORE CALLVALUE DUP1 ISZERO PUSH2 0x10 JUMPI PUSH1 0x0 DUP1 REVERT JUMPDEST POP PUSH2 0x7AE DUP1 PUSH2 0x20 PUSH1 0x0 CODECOPY PUSH1 0x0 RETURN INVALID PUSH1 0x80 PUSH1 0x40 MSTORE PUSH1 0x4 CALLDATASIZE LT PUSH2 0x7E JUMPI PUSH1 0x0 CALLDATALOAD PUSH1 0xE0 SHR DUP1 PUSH4 0xB831461E GT PUSH2 0x4E JUMPI DUP1 PUSH4 0xB831461E EQ PUSH2 0x138 JUMPI DUP1 PUSH4 0xCEA69559 EQ PUSH2 0x163 JUMPI DUP1 PUSH4 0xD0E30DB0 EQ PUSH2 0x18E JUMPI DUP1 PUSH4 0xE15E1C95 EQ PUSH2 0x198 JUMPI PUSH2 0x8B JUMP JUMPDEST DUP1 PUSH3 0xF714CE EQ PUSH2 0x90 JUMPI DUP1 PUSH4 0x43E02605 EQ PUSH2 0xB9 JUMPI DUP1 PUSH4 0x6881C9EA EQ PUSH2 0xE2 JUMPI DUP1 PUSH4 0x8B7AFE2E EQ PUSH2 0x10D JUMPI PUSH2 0x8B JUMP JUMPDEST CALLDATASIZE PUSH2 0x8B JUMPI SELFBALANCE PUSH1 0x4 DUP2 SWAP1 SSTORE STOP JUMPDEST PUSH1 0x0 DUP1 REVERT JUMPDEST CALLVALUE DUP1 ISZERO PUSH2 0x9C JUMPI PUSH1 0x0 DUP1 REVERT JUMPDEST POP PUSH2 0xB7 PUSH1 0x4 DUP1 CALLDATASIZE SUB DUP2 ADD SWAP1 PUSH2 0xB2 SWAP2 SWAP1 PUSH2 0x57F JUMP JUMPDEST PUSH2 0x1C3 JUMP JUMPDEST STOP JUMPDEST CALLVALUE DUP1 ISZERO PUSH2 0xC5 JUMPI PUSH1 0x0 DUP1 REVERT JUMPDEST POP PUSH2 0xE0 PUSH1 0x4 DUP1 CALLDATASIZE SUB DUP2 ADD SWAP1 PUSH2 0xDB SWAP2 SWAP1 PUSH2 0x5BF JUMP JUMPDEST PUSH2 0x3DC JUMP JUMPDEST STOP JUMPDEST CALLVALUE DUP1 ISZERO PUSH2 0xEE JUMPI PUSH1 0x0 DUP1 REVERT JUMPDEST POP PUSH2 0xF7 PUSH2 0x461 JUMP JUMPDEST PUSH1 0x40 MLOAD PUSH2 0x104 SWAP2 SWAP1 PUSH2 0x60E JUMP JUMPDEST PUSH1 0x40 MLOAD DUP1 SWAP2 SUB SWAP1 RETURN JUMPDEST CALLVALUE DUP1 ISZERO PUSH2 0x119 JUMPI PUSH1 0x0 DUP1 REVERT JUMPDEST POP PUSH2 0x122 PUSH2 0x485 JUMP JUMPDEST PUSH1 0x40 MLOAD PUSH2 0x12F SWAP2 SWAP1 PUSH2 0x638 JUMP JUMPDEST PUSH1 0x40 MLOAD DUP1 SWAP2 SUB SWAP1 RETURN JUMPDEST CALLVALUE DUP1 ISZERO PUSH2 0x144 JUMPI PUSH1 0x0 DUP1 REVERT JUMPDEST POP PUSH2 0x14D PUSH2 0x48B JUMP JUMPDEST PUSH1 0x40 MLOAD PUSH2 0x15A SWAP2 SWAP1 PUSH2 0x638 JUMP JUMPDEST PUSH1 0x40 MLOAD DUP1 SWAP2 SUB SWAP1 RETURN JUMPDEST CALLVALUE DUP1 ISZERO PUSH2 0x16F JUMPI PUSH1 0x0 DUP1 REVERT JUMPDEST POP PUSH2 0x178 PUSH2 0x491 JUMP JUMPDEST PUSH1 0x40 MLOAD PUSH2 0x185 SWAP2 SWAP1 PUSH2 0x60E JUMP JUMPDEST PUSH1 0x40 MLOAD DUP1 SWAP2 SUB SWAP1 RETURN JUMPDEST PUSH2 0x196 PUSH2 0x4B7 JUMP JUMPDEST STOP JUMPDEST CALLVALUE DUP1 ISZERO PUSH2 0x1A4 JUMPI PUSH1 0x0 DUP1 REVERT JUMPDEST POP PUSH2 0x1AD PUSH2 0x4C0 JUMP JUMPDEST PUSH1 0x40 MLOAD PUSH2 0x1BA SWAP2 SWAP1 PUSH2 0x674 JUMP JUMPDEST PUSH1 0x40 MLOAD DUP1 SWAP2 SUB SWAP1 RETURN JUMPDEST PUSH1 0x0 DUP1 SLOAD SWAP1 PUSH2 0x100 EXP SWAP1 DIV PUSH20 0xFFFFFFFFFFFFFFFFFFFFFFFFFFFFFFFFFFFFFFFF AND PUSH20 0xFFFFFFFFFFFFFFFFFFFFFFFFFFFFFFFFFFFFFFFF AND DUP2 PUSH20 0xFFFFFFFFFFFFFFFFFFFFFFFFFFFFFFFFFFFFFFFF AND EQ DUP1 PUSH2 0x26A JUMPI POP PUSH1 0x1 PUSH1 0x0 SWAP1 SLOAD SWAP1 PUSH2 0x100 EXP SWAP1 DIV PUSH20 0xFFFFFFFFFFFFFFFFFFFFFFFFFFFFFFFFFFFFFFFF AND PUSH20 0xFFFFFFFFFFFFFFFFFFFFFFFFFFFFFFFFFFFFFFFF AND DUP2 PUSH20 0xFFFFFFFFFFFFFFFFFFFFFFFFFFFFFFFFFFFFFFFF AND EQ JUMPDEST PUSH2 0x2A9 JUMPI PUSH1 0x40 MLOAD PUSH32 0x8C379A000000000000000000000000000000000000000000000000000000000 DUP2 MSTORE PUSH1 0x4 ADD PUSH2 0x2A0 SWAP1 PUSH2 0x6EC JUMP JUMPDEST PUSH1 0x40 MLOAD DUP1 SWAP2 SUB SWAP1 REVERT JUMPDEST DUP2 SELFBALANCE LT ISZERO PUSH2 0x2EC JUMPI PUSH1 0x40 MLOAD PUSH32 0x8C379A000000000000000000000000000000000000000000000000000000000 DUP2 MSTORE PUSH1 0x4 ADD PUSH2 0x2E3 SWAP1 PUSH2 0x758 JUMP JUMPDEST PUSH1 0x40 MLOAD DUP1 SWAP2 SUB SWAP1 REVERT JUMPDEST DUP1 PUSH20 0xFFFFFFFFFFFFFFFFFFFFFFFFFFFFFFFFFFFFFFFF AND PUSH1 0x2 PUSH1 0x0 SWAP1 SLOAD SWAP1 PUSH2 0x100 EXP SWAP1 DIV PUSH20 0xFFFFFFFFFFFFFFFFFFFFFFFFFFFFFFFFFFFFFFFF AND PUSH20 0xFFFFFFFFFFFFFFFFFFFFFFFFFFFFFFFFFFFFFFFF AND EQ PUSH2 0x383 JUMPI DUP1 PUSH1 0x2 PUSH1 0x0 PUSH2 0x100 EXP DUP2 SLOAD DUP2 PUSH20 0xFFFFFFFFFFFFFFFFFFFFFFFFFFFFFFFFFFFFFFFF MUL NOT AND SWAP1 DUP4 PUSH20 0xFFFFFFFFFFFFFFFFFFFFFFFFFFFFFFFFFFFFFFFF AND MUL OR SWAP1 SSTORE POP JUMPDEST DUP1 PUSH20 0xFFFFFFFFFFFFFFFFFFFFFFFFFFFFFFFFFFFFFFFF AND PUSH2 0x8FC DUP4 SWAP1 DUP2 ISZERO MUL SWAP1 PUSH1 0x40 MLOAD PUSH1 0x0 PUSH1 0x40 MLOAD DUP1 DUP4 SUB DUP2 DUP6 DUP9 DUP9 CALL SWAP4 POP POP POP POP ISZERO DUP1 ISZERO PUSH2 0x3C9 JUMPI RETURNDATASIZE PUSH1 0x0 DUP1 RETURNDATACOPY RETURNDATASIZE PUSH1 0x0 REVERT JUMPDEST POP DUP2 PUSH1 0x3 DUP2 SWAP1 SSTORE POP SELFBALANCE PUSH1 0x4 DUP2 SWAP1 SSTORE POP POP POP JUMP JUMPDEST DUP2 PUSH1 0x0 DUP1 PUSH2 0x100 EXP DUP2 SLOAD DUP2 PUSH20 0xFFFFFFFFFFFFFFFFFFFFFFFFFFFFFFFFFFFFFFFF MUL NOT AND SWAP1 DUP4 PUSH20 0xFFFFFFFFFFFFFFFFFFFFFFFFFFFFFFFFFFFFFFFF AND MUL OR SWAP1 SSTORE POP DUP1 PUSH1 0x1 PUSH1 0x0 PUSH2 0x100 EXP DUP2 SLOAD DUP2 PUSH20 0xFFFFFFFFFFFFFFFFFFFFFFFFFFFFFFFFFFFFFFFF MUL NOT AND SWAP1 DUP4 PUSH20 0xFFFFFFFFFFFFFFFFFFFFFFFFFFFFFFFFFFFFFFFF AND MUL OR SWAP1 SSTORE POP POP POP JUMP JUMPDEST PUSH1 0x0 DUP1 SLOAD SWAP1 PUSH2 0x100 EXP SWAP1 DIV PUSH20 0xFFFFFFFFFFFFFFFFFFFFFFFFFFFFFFFFFFFFFFFF AND DUP2 JUMP JUMPDEST PUSH1 0x4 SLOAD DUP2 JUMP JUMPDEST PUSH1 0x3 SLOAD DUP2 JUMP JUMPDEST PUSH1 0x1 PUSH1 0x0 SWAP1 SLOAD SWAP1 PUSH2 0x100 EXP SWAP1 DIV PUSH20 0xFFFFFFFFFFFFFFFFFFFFFFFFFFFFFFFFFFFFFFFF AND DUP2 JUMP JUMPDEST SELFBALANCE PUSH1 0x4 DUP2 SWAP1 SSTORE POP JUMP JUMPDEST PUSH1 0x2 PUSH1 0x0 SWAP1 SLOAD SWAP1 PUSH2 0x100 EXP SWAP1 DIV PUSH20 0xFFFFFFFFFFFFFFFFFFFFFFFFFFFFFFFFFFFFFFFF AND DUP2 JUMP JUMPDEST PUSH1 0x0 DUP1 REVERT JUMPDEST PUSH1 0x0 DUP2 SWAP1 POP SWAP2 SWAP1 POP JUMP JUMPDEST PUSH2 0x4FE DUP2 PUSH2 0x4EB JUMP JUMPDEST DUP2 EQ PUSH2 0x509 JUMPI PUSH1 0x0 DUP1 REVERT JUMPDEST POP JUMP JUMPDEST PUSH1 0x0 DUP2 CALLDATALOAD SWAP1 POP PUSH2 0x51B DUP2 PUSH2 0x4F5 JUMP JUMPDEST SWAP3 SWAP2 POP POP JUMP JUMPDEST PUSH1 0x0 PUSH20 0xFFFFFFFFFFFFFFFFFFFFFFFFFFFFFFFFFFFFFFFF DUP3 AND SWAP1 POP SWAP2 SWAP1 POP JUMP JUMPDEST PUSH1 0x0 PUSH2 0x54C DUP3 PUSH2 0x521 JUMP JUMPDEST SWAP1 POP SWAP2 SWAP1 POP JUMP JUMPDEST PUSH2 0x55C DUP2 PUSH2 0x541 JUMP JUMPDEST DUP2 EQ PUSH2 0x567 JUMPI PUSH1 0x0 DUP1 REVERT JUMPDEST POP JUMP JUMPDEST PUSH1 0x0 DUP2 CALLDATALOAD SWAP1 POP PUSH2 0x579 DUP2 PUSH2 0x553 JUMP JUMPDEST SWAP3 SWAP2 POP POP JUMP JUMPDEST PUSH1 0x0 DUP1 PUSH1 0x40 DUP4 DUP6 SUB SLT ISZERO PUSH2 0x596 JUMPI PUSH2 0x595 PUSH2 0x4E6 JUMP JUMPDEST JUMPDEST PUSH1 0x0 PUSH2 0x5A4 DUP6 DUP3 DUP7 ADD PUSH2 0x50C JUMP JUMPDEST SWAP3 POP POP PUSH1 0x20 PUSH2 0x5B5 DUP6 DUP3 DUP7 ADD PUSH2 0x56A JUMP JUMPDEST SWAP2 POP POP SWAP3 POP SWAP3 SWAP1 POP JUMP JUMPDEST PUSH1 0x0 DUP1 PUSH1 0x40 DUP4 DUP6 SUB SLT ISZERO PUSH2 0x5D6 JUMPI PUSH2 0x5D5 PUSH2 0x4E6 JUMP JUMPDEST JUMPDEST PUSH1 0x0 PUSH2 0x5E4 DUP6 DUP3 DUP7 ADD PUSH2 0x56A JUMP JUMPDEST SWAP3 POP POP PUSH1 0x20 PUSH2 0x5F5 DUP6 DUP3 DUP7 ADD PUSH2 0x56A JUMP JUMPDEST SWAP2 POP POP SWAP3 POP SWAP3 SWAP1 POP JUMP JUMPDEST PUSH2 0x608 DUP2 PUSH2 0x541 JUMP JUMPDEST DUP3 MSTORE POP POP JUMP JUMPDEST PUSH1 0x0 PUSH1 0x20 DUP3 ADD SWAP1 POP PUSH2 0x623 PUSH1 0x0 DUP4 ADD DUP5 PUSH2 0x5FF JUMP JUMPDEST SWAP3 SWAP2 POP POP JUMP JUMPDEST PUSH2 0x632 DUP2 PUSH2 0x4EB JUMP JUMPDEST DUP3 MSTORE POP POP JUMP JUMPDEST PUSH1 0x0 PUSH1 0x20 DUP3 ADD SWAP1 POP PUSH2 0x64D PUSH1 0x0 DUP4 ADD DUP5 PUSH2 0x629 JUMP JUMPDEST SWAP3 SWAP2 POP POP JUMP JUMPDEST PUSH1 0x0 PUSH2 0x65E DUP3 PUSH2 0x521 JUMP JUMPDEST SWAP1 POP SWAP2 SWAP1 POP JUMP JUMPDEST PUSH2 0x66E DUP2 PUSH2 0x653 JUMP JUMPDEST DUP3 MSTORE POP POP JUMP JUMPDEST PUSH1 0x0 PUSH1 0x20 DUP3 ADD SWAP1 POP PUSH2 0x689 PUSH1 0x0 DUP4 ADD DUP5 PUSH2 0x665 JUMP JUMPDEST SWAP3 SWAP2 POP POP JUMP JUMPDEST PUSH1 0x0 DUP3 DUP3 MSTORE PUSH1 0x20 DUP3 ADD SWAP1 POP SWAP3 SWAP2 POP POP JUMP JUMPDEST PUSH32 0x596F7520646F6E2774206F776E2074686973206163636F756E74210000000000 PUSH1 0x0 DUP3 ADD MSTORE POP JUMP JUMPDEST PUSH1 0x0 PUSH2 0x6D6 PUSH1 0x1B DUP4 PUSH2 0x68F JUMP JUMPDEST SWAP2 POP PUSH2 0x6E1 DUP3 PUSH2 0x6A0 JUMP JUMPDEST PUSH1 0x20 DUP3 ADD SWAP1 POP SWAP2 SWAP1 POP JUMP JUMPDEST PUSH1 0x0 PUSH1 0x20 DUP3 ADD SWAP1 POP DUP2 DUP2 SUB PUSH1 0x0 DUP4 ADD MSTORE PUSH2 0x705 DUP2 PUSH2 0x6C9 JUMP JUMPDEST SWAP1 POP SWAP2 SWAP1 POP JUMP JUMPDEST PUSH32 0x496E73756666696369656E742066756E64732100000000000000000000000000 PUSH1 0x0 DUP3 ADD MSTORE POP JUMP JUMPDEST PUSH1 0x0 PUSH2 0x742 PUSH1 0x13 DUP4 PUSH2 0x68F JUMP JUMPDEST SWAP2 POP PUSH2 0x74D DUP3 PUSH2 0x70C JUMP JUMPDEST PUSH1 0x20 DUP3 ADD SWAP1 POP SWAP2 SWAP1 POP JUMP JUMPDEST PUSH1 0x0 PUSH1 0x20 DUP3 ADD SWAP1 POP DUP2 DUP2 SUB PUSH1 0x0 DUP4 ADD MSTORE PUSH2 0x771 DUP2 PUSH2 0x735 JUMP JUMPDEST SWAP1 POP SWAP2 SWAP1 POP JUMP INVALID LOG2 PUSH5 0x6970667358 0x22 SLT KECCAK256 SWAP5 0x2C CALLDATALOAD 0xD GAS PUSH19 0x79492D2B3060B6C4AAAD1E77F92CD8980F5630 0xD4 0x4E 0xFC 0xBD PC PUSH24 0x8C64736F6C63430008120033000000000000000000000000 "
				},
				"gasEstimates": {
					"creation": {
						"codeDepositCost": "393200",
						"executionCost": "430",
						"totalCost": "393630"
					},
					"external": {
						"accountOne()": "2556",
						"accountTwo()": "2536",
						"contractBalance()": "2496",
						"deposit()": "22280",
						"lastToWithdraw()": "2580",
						"lastWithdrawAmount()": "2429",
						"setAccounts(address,address)": "infinite",
						"withdraw(uint256,address)": "infinite"
					}
				},
				"methodIdentifiers": {
					"accountOne()": "6881c9ea",
					"accountTwo()": "cea69559",
					"contractBalance()": "8b7afe2e",
					"deposit()": "d0e30db0",
					"lastToWithdraw()": "e15e1c95",
					"lastWithdrawAmount()": "b831461e",
					"setAccounts(address,address)": "43e02605",
					"withdraw(uint256,address)": "00f714ce"
				}
			},
			"storageLayout": {
				"storage": [
					{
						"astId": 3,
						"contract": "joint_savings.sol:JointSavings",
						"label": "accountOne",
						"offset": 0,
						"slot": "0",
						"type": "t_address_payable"
					},
					{
						"astId": 5,
						"contract": "joint_savings.sol:JointSavings",
						"label": "accountTwo",
						"offset": 0,
						"slot": "1",
						"type": "t_address_payable"
					},
					{
						"astId": 7,
						"contract": "joint_savings.sol:JointSavings",
						"label": "lastToWithdraw",
						"offset": 0,
						"slot": "2",
						"type": "t_address"
					},
					{
						"astId": 9,
						"contract": "joint_savings.sol:JointSavings",
						"label": "lastWithdrawAmount",
						"offset": 0,
						"slot": "3",
						"type": "t_uint256"
					},
					{
						"astId": 11,
						"contract": "joint_savings.sol:JointSavings",
						"label": "contractBalance",
						"offset": 0,
						"slot": "4",
						"type": "t_uint256"
					}
				],
				"types": {
					"t_address": {
						"encoding": "inplace",
						"label": "address",
						"numberOfBytes": "20"
					},
					"t_address_payable": {
						"encoding": "inplace",
						"label": "address payable",
						"numberOfBytes": "20"
					},
					"t_uint256": {
						"encoding": "inplace",
						"label": "uint256",
						"numberOfBytes": "32"
					}
				}
			},
			"userdoc": {
				"kind": "user",
				"methods": {},
				"version": 1
			}
		}
	}
}